:100C8400736563757269792073797374656D007324
:100C94006972656E3A20006D6F74696F6E206465C9
:100CA400746563746564007365637572697479202F
:100CB40073797374656D004E6F206D6F74696F6E18
:100CC40020646574656374656400536972656E3A83
:100CD4002000534946524520444F47525500414C49
:100CE40041524D20504153494600475556454E4CBC
:100CF400494B2049484C414C4900484154414C49D6
:070D0400205349465245004F
:100DE10002080001010C31010D32010E35010F38ED
:10080000E4F519C285C286C287D2B6D2B77F381244
:100810000DD17F01120DD17F10120DD17F0C120D61
:10082000D17F80120DD17BFF7A0C7984120D807FED
:10083000F47E01120DA97F01120DD17BFF7A0C7994
:1008400093120D80C285120DA5C3E50B9404E50A31
:1008500094005024120DCCE50B6401450A70038509
:100860001910E50B6402450A7003851911E50B6444
:1008700003450A7003851912E50B6404450A6003F9
:10088000020AE87F64FE120DA9120DC9120B1D8F1A
:1008900019120DF2120DA5E519642A6003020AD798
:1008A0007FC8FE120DA9E50C65106003020AC0E5C1
:1008B0000D65116003020AC0E50E65126003020AAD
:1008C000C0E50F65136003020AC07F01120DD17BE2
:1008D000FF7A0C799B120D807FC87E00120DA97FD4
:1008E00001120DD17BFF7A0C79AB120D80C3E509A3
:1008F000941EE508648094805020D285C2B67F2C77
:100900007E01120DA9D2B6C2857F2C7E01120DA9DF
:100910000509E50970D7050880D375107875117839
:10092000751278751378E4F508F50920B31220B232
:100930000FD285D286D2877FC87E00120DA980EBA8
:100940007F01120DD17BFF7A0C79BB120D807FF4F1
:100950007E01120DA9020AB3C3E5099432E50864C9
:100960008094804003020AE87BFF7A0C79CE120D56
:1009700080C285C286C287D2B67F327E00120DA9A0
:10098000C3E50B9404E50A9400502B120DCCE50B43
:100990006401450A7003851910E50B6402450A706D
:1009A00003851911E50B6403450A70038519127F4D
:1009B000327E00120DA9E50B6404450A6003020AA9
:1009C000817F64FE120DA9120DC9120B1D8F191221
:1009D0000DF2120DA5E519642A6003020A7F7FC893
:1009E000FE120DA9E50C65107042E50D6511703C15
:1009F000E50E65127036E50F651370307F01120D3C
:100A0000D17BFF7A0C79D6120D807FC87E00120D43
:100A1000A97F01120DD17BFF7A0C79E2120D80C201
:100A200085C286C287D2B6120DA580FBE4F508F513
:100A3000097F01120DD17BFF7A0C79EE120D80C374
:100A4000E509942CE508648094815035D285D286DE
:100A5000D287C2B7759850758920758DFDD28E7575
:100A600099313099FDC2997F2C7E01120DA9C28562
:100A7000C286C287D2B77F2C7E01120DA980C080AA
:100A800032D285D286D287C2B6120DA5120B1D8F27
:100A900019120DF2120DA50509E50970020508D31A
:100AA000E50B9404E50A94005009E51964236003FA
:100AB0000209717F01120DD1E4F50AF50B02095804
:100AC0007F01120DD17BFF7A0C79FE120D807FC859
:100AD0007E00120DA980007F01120DD1E4F50AF508
:100AE0000BF508F50902083BD285120DA5120B1D66
:100AF0008F19120DF2120DA5D3E50B9404E50A949B
:100B0000005009E519642360030208447F01120DB7
:0D0B1000D1E4F50AF50BF508F50902083BE4
:100B1D00E4FF7590FEAE90EE64EE700A7F31050B2A
:100B2D00E50B7002050AAE90EE64DE700A7F3205A9
:100B3D000BE50B7002050AAE90EE64BE700A7F33B2
:100B4D00050BE50B7002050A7590FDAE90EE64ED98
:100B5D00700A7F34050BE50B7002050AAE90EE644A
:100B6D00DD700A7F35050BE50B7002050AAE90EEC0
:100B7D0064BD700A7F36050BE50B7002050A759092
:100B8D00FBAE90EE64EB700A7F37050BE50B700240
:100B9D00050AAE90EE64DB700A7F38050BE50B702D
:100BAD0002050AAE90EE64BB700A7F39050BE50BAA
:100BBD007002050A7590F7AE90EE64E7700A7F2A11
:100BCD00050BE50B7002050AAE90EE64D7700A7F37
:100BDD0030050BE50B7002050AAE90EE64B7700A96
:0A0BED007F23050BE50B7002050ADB
:010BF70022DB
:060D51008B148A158916BF
:100D5700E4F517F518F517F518AB14AA15A91685B4
:100D67001882851783120D24FF600D120DF20518E6
:080D7700E51870E5051780E1A5
:010D7F002251
:100DF2008FA0D2B4D2B57F0A7E00120DA9C2B5224D
:080DC900851913E50B2488FFD6
:100DD1008FA0C2B4D2B57F0A7E00120DA9C2B5227E
:100D80008B1A8A1B891CAB1AAA1BA91C120D0B609B
:100D900013051CE51C7002051B14F9120D0BFF1244
:050DA0000DF280E222CB
:040DA5007F647E00E9
:100DA900E4FDFCC3ED9FEC9E5015E4FAFB0BBB0080
:0F0DB900010ABA03F8BBE8F50DBD00010C80E498
:010DC8002208
:03000000020BF8F8
:0C0BF800787FE4F6D8FD75811C020C3FEC
:100D0B00BB010689828A83E0225002E722BBFE02E6
:090D1B00E32289828A83E4932219
:100D2400BB010CE58229F582E5833AF583E0225084
:100D340006E92582F8E622BBFE06E92582F8E222CE
:0D0D4400E58229F582E5833AF583E49322E8
:100C0400020800E493A3F8E493A34003F68001F2FE
:100C140008DFF48029E493A3F85407240CC8C333F1
:100C2400C4540F4420C8834004F456800146F6DFC0
:100C3400E4800B0102040810204080900DE1E47E62
:100C4400019360BCA3FF543F30E509541FFEE493B5
:100C5400A360010ECF54C025E060A840B8E493A37C
:100C6400FAE493A3F8E493A3C8C582C8CAC583CAA7
:100C7400F0A3C8C582C8CAC583CADFE9DEE780BE5F
:010DF1000001
:00000001FF
